:020000020000FC
:0C0000000C9433000C9432000C9432007D
:10005C000C94D5000C94320018954FEF4DBF41E233
:10006C004EBF40EF40930A014FEF47B948B94FEFED
:10007C0040BB41B9442741BB42B94FEF48B9C0E03E
:10008C00D2E0442749934883C2E0D2E04427499305
:10009C004883C6E0D2E0442749934883C9E0D2E0C4
:1000AC00442749934883C4E0D2E0442749934883CA
:1000BC00C7E0D2E044274993488381E0809307024C
:1000CC0080910B0290910C028CE180930B028CE1DD
:1000DC0080930C028827607040E044BD42E045BD2F
:1000EC0041E040936E004FEF4DB940E040939A00D1
:1000FC00442740939B0041E04093910041E24093A0
:10010C0090004F9348E3EFD202D34F911AD34F9301
:10011C0048E3E9D2FCD24F914F9348E3E4D2F7D2B3
:10012C004F914F9348E0DFD2F2D24F914F9341E081
:10013C00DAD2EDD24F914F9346E0D5D2E8D24F911F
:10014C004F934EE0D0D2E3D24F914F9346E4D4D2AA
:10015C00DED24F914F934CE4CFD2D9D24F914F93E3
:10016C004FE4CAD2D4D24F914F934FE4C5D2CFD2E1
:10017C004F914F9342E5C0D2CAD24F914F934AE36D
:10018C00BBD2C5D24F914F9340E2B6D2C0D24F9161
:10019C004F9340E3B1D2BBD24F9178943DC14FB74E
:1001AC004F935F937F93DF93CF93BF93AF939F93C3
:1001BC008F93562F5270523009F013C0A091040245
:1001CC00B091050211964CE0A033B40711F00C94D9
:1001DC0032016D7FC4E0D2E0442749934883AA27BB
:1001EC00BB27809100029091010201964EE1843868
:1001FC00940709F02CC0C0E0D2E04427499348830F
:10020C00C0910202D09103022196882799278091F0
:10021C00090290910A02803040E09407A9F0562F11
:10022C005470543091F4C230C0930202D093030244
:10023C00C4F450910B0270910C02550F771F78B9D2
:10024C0050930B0270930C02A5C00C94DB018093AD
:10025C000002909301029EC0A0930402B093050289
:10026C0099C05F934F93BF93AF939F938F93562FE8
:10027C005870583039F420900602E1E02E0E20928E
:10028C00060206C020900602EFEF2E0E2092060208
:10029C008827992781E0409106024F93413024F042
:1002AC004A95880F991FFACF4F918093070290932C
:1002BC0008024F9348E317D22AD24F9142D24F9360
:1002CC0048E311D224D24F914F9348E30CD21FD262
:1002DC004F914F9348E007D21AD24F914F9341E080
:1002EC0002D215D24F914F9346E0FDD110D24F91CF
:1002FC004F934EE0F8D10BD24F914F9346E4FCD183
:10030C0006D24F914F934CE4F7D101D24F914F93BA
:10031C004FE4F2D1FCD14F914F934FE4EDD1F7D193
:10032C004F914F9342E5E8D1F2D14F914F934AE36D
:10033C00E3D1EDD14F914F9340E2DED1E8D14F9113
:10034C00209006025F93522D505D4F93452FD4D1D0
:10035C00DED14F915F91C2E0D2E0442749934883AC
:10036C006B7F40E040939A00442740939B0080951C
:10037C009095A0910902B0910A02A823B923A093E9
:10038C000902B0930A028F919F91AF91BF914F9147
:10039C005F9100C08F919F91AF91BF91CF91DF91F1
:1003AC007F915F914F914FBF18957F935F93BF9350
:1003BC00AF939F938F93FF93EF93EE27FF27C2E0AA
:1003CC00D2E0442749934883C0E0D2E044274993C4
:1003DC0048836460A0910702B091080280910902E1
:1003EC0090910A02A817B9070CF402C0677F01C0EC
:1003FC0068605FEF50939A007CE178B970930B02C0
:10040C007CE170930C02EF91FF918F919F91AF91D2
:10041C00BF915F917F91BECF3FEE11271430E1F376
:10042C0030930B014FEF4A95F1F7409109014F7052
:10043C004F3059F021E00027043039F0542F52236B
:10044C0041F00395220F0C942202330F13950C9458
:10045C001402133009F3033039F0402F440F400FCE
:10046C00410F4F5F0C944003103031F0113009F004
:10047C00D3CF40E00C944003562F5270523031F0E1
:10048C006260562F5170513019F056C00C94120204
:10049C004F9348E328D13BD14F9153D14F9348E32D
:1004AC0022D135D14F914F9348E31DD130D14F918B
:1004BC004F9348E018D12BD14F914F9341E013D17A
:1004CC0026D14F914F9346E00ED121D14F914F93AE
:1004DC004EE009D11CD14F914F9346E40DD117D169
:1004EC004F914F934CE408D112D14F914F934FE45D
:1004FC0003D10DD14F914F934FE4FED008D14F91C2
:10050C004F9342E5F9D003D14F914F934AE3F4D086
:10051C00FED04F914F9340E2EFD0F9D04F91209005
:10052C0006025F93522D505D4F93452FE5D0EFD0CF
:10053C004F915F916E7F70CF4F9348E3D4D0E7D04B
:10054C004F91FFD04F9348E3CED0E1D04F914F93D2
:10055C0048E3C9D0DCD04F914F9348E0C4D0D7D0FA
:10056C004F914F9341E0BFD0D2D04F914F9346E083
:10057C00BAD0CDD04F914F934EE0B5D0C8D04F915B
:10058C004F9340E2B9D0C3D04F914F9340E2B4D0D7
:10059C00BED04F914F9340E2AFD0B9D04F914F9313
:1005AC0045E4AAD0B4D04F914F934DE6A5D0AFD02F
:1005BC004F914F9345E6A0D0AAD04F914F9342E76D
:1005CC009BD0A5D04F914F9347E696D0A0D04F919A
:1005DC004F9345E691D09BD04F914F934EE68CD0E4
:1005EC0096D04F914F9343E687D091D04F914F9334
:1005FC0049E782D08CD04F914F9340EC74D087D088
:10060C004F914F9340E278D082D04F914F9340E27C
:10061C0073D07DD04F914F9340E26ED078D04F91F4
:10062C004F9343E469D073D04F914F9341E664D01C
:10063C006ED04F914F934CE65FD069D04F914F9352
:10064C004CE65AD064D04F914F9340E255D05FD0D6
:10065C004F914F9340E350D05AD04F914F9340E37A
:10066C004BD055D04F914F9340E346D050D04F9143
:10067C006160D2CE562F5170513051F0562F5270BE
:10068C00523031F06260F0910602F41709F002D09A
:10069C000C9412025F934F939F938F938827992703
:1006AC0081E04F93413024F04A95880F991FFACF7F
:1006BC004F91482F592F5F934F939F938F93809116
:1006CC00090290910A02842B952B80930902909336
:1006DC000A028F919F914F915F918F919F914F91B2
:1006EC005F910895FFCF4F9341BB22D0169A20D033
:1006FC0016981ED04F9108954F9341BB179A18D05E
:10070C00169A16D0169814D017984F9108954F93A7
:10071C00442740BB41BB159A0BD0169A09D04FB158
:10072C00169847FDF9CF15984FEF40BB4F910895A0
:10073C008F939F939FE08CE90197F1F79F918F9195
:0E074C000895F6DFF5DFF4DFF3DFF2DF089546
:00000001FF
