:020000020000FC
:100000000C9433000C949E020C9432000C94320039
:10005C000C94E4000C94320018954FEF4DBF41E224
:10006C004EBF40EF40930A014FEF47B948B943BB2D
:10007C0044BB4FEF40BB41B9442741BB42B94FEFA2
:10008C0048B944BBC0E0D2E0442749934883C2E05E
:10009C00D2E0442749934883C8E0D2E044274993EF
:1000AC004883CBE0D2E0442749934883C4E0D2E0B4
:1000BC00442749934883C9E0D2E0442749934883B5
:1000CC0081E08093090280930D0280910D02909142
:1000DC000E028CE180930D028CE180930E02882736
:1000EC00607040E044BD42E045BD41E040936E008D
:1000FC004FEF4DB940E040939A00442740939B004A
:10010C0041E04093910041E24093900042E04093E3
:10011C0069004DB341604DBB4FEF44B9442745B91D
:10012C004F9348E39FD3B2D34F91CAD34F9348E335
:10013C0099D3ACD34F914F9348E394D3A7D34F911A
:10014C004F9348E08FD3A2D34F914F9341E08AD382
:10015C009DD34F914F9346E085D398D34F914F93B6
:10016C004EE080D393D34F914F9346E484D38ED3F8
:10017C004F914F934CE47FD389D34F914F934FE4DE
:10018C007AD384D34F914F934FE475D37FD34F9150
:10019C004F9342E570D37AD34F914F934AE36BD38D
:1001AC0075D34F914F9340E266D370D34F914F93D9
:1001BC0040E361D36BD34F917894D1C14FB74F9338
:1001CC005F937F93DF93CF93BF93AF939F938F9363
:1001DC00562F5270523009F013C0A0910402B09106
:1001EC00050211964CE0A033B40711F00C94930166
:1001FC006D7FC4E0D2E0442749934883AA27BB27EC
:10020C0080910002909101020196562F517051304D
:10021C00A9F4A0910602B0910702119643E0A03D0B
:10022C00B40741F4C6E0D2E0442749934883909444
:10023C0095B804C0A0930602B09307024EE184382F
:10024C00940709F065C0C0E0D2E044274993488385
:10025C00C0910202D09103022196562F5071503159
:10026C0011F5562F5072503291F06F7E606245EB53
:10027C0048B942E044BBC130C0930202D0930302A0
:10028C0029F4C2E0D2E04427499348833EC06F7EF4
:10029C006F7D45EB48B942E044BBC2E0D2E0442755
:1002AC004993488332C0562F5072503281F443E048
:1002BC0048B944BBC0930202D0930302C33029F562
:1002CC006061C2E0D2E04427499348831EC04FEFDF
:1002DC0048B943E044BB8827992780910B02909141
:1002EC000C02803040E0940781F0562F547054304B
:1002FC0069F4C230C0930202D09303029CF4A09123
:10030C000D02B0910E02A8B9B4BBBFC00C9456023A
:10031C008093000290930102B8C0A0930402B093A2
:10032C000502B3C05F934F93BF93AF939F938F938B
:10033C00562F5870583039F420900802E1E02E0EF8
:10034C002092080206C020900802EFEF2E0E209299
:10035C0008028827992781E0409108024F93413089
:10036C0024F04A95880F991FFACF4F918093090278
:10037C0090930A02562F5170513009F452C04F938A
:10038C0048E370D283D24F919BD24F9348E36AD209
:10039C007DD24F914F9348E365D278D24F914F93D2
:1003AC0048E060D273D24F914F9341E05BD26ED252
:1003BC004F914F9346E056D269D24F914F934EE0F6
:1003CC0051D264D24F914F9346E455D25FD24F91A4
:1003DC004F934CE450D25AD24F914F934FE44BD29F
:1003EC0055D24F914F934FE446D250D24F914F93E9
:1003FC0042E541D24BD24F914F934AE33CD246D285
:10040C004F914F9340E237D241D24F912090080246
:10041C005F93522D505D4F93452F2DD237D24F9174
:10042C005F91C2E0D2E04427499348836B7F40E060
:10043C0040939A00442740939B0040900B025090AD
:10044C000C028421803021F49521903009F40AC0EB
:10045C00606145EB48B942E044BBC2E0D2E04427BE
:10046C004993488380959095A0910B02B0910C0212
:10047C00A823B923A0930B02B0930C028F919F91E8
:10048C00AF91BF914F915F9100C08F919F91AF91B0
:10049C00BF91CF91DF917F915F914F914FBF189595
:1004AC007F935F93BF93AF939F938F93FF93EF9340
:1004BC00EE27FF27C2E0D2E0442749934883C0E0EF
:1004CC00D2E04427499348836460A0910902B0911B
:1004DC000A026A2E7B2EA8B9B4BB80910B029091B4
:1004EC000C02482E592EA817B9072CF41197A421E9
:1004FC00A03029F008C0677F6694779409C06860C3
:10050C00660C771C05C0562F58705830C1F3F3CFCA
:10051C005FEF50939A0060920D0270920E02EF9171
:10052C00FF918F919F91AF91BF915F917F91ADCFD3
:10053C004F934FB74F93562F5072503261F4562F42
:10054C005270523041F0626060616062C2E0D2E091
:10055C004427499348834F914FBF4F9118953FEED5
:10056C0011271430E1F330930B014FEF4A95F1F75B
:10057C00409109014F704F3059F021E000270430B1
:10058C0039F0542F522341F00395220F0C94C502DD
:10059C00330F13950C94B702133009F3033039F071
:1005AC00402F440F400F410F4F5F0C94FF0310304E
:1005BC0031F0113009F0D3CF40E00C94FF03562FEB
:1005CC005270523031F06260562F5170513019F028
:1005DC0057C00C94B5024F9348E344D157D14F9177
:1005EC006FD14F9348E33ED151D14F914F9348E394
:1005FC0039D14CD14F914F9348E034D147D14F91E1
:10060C004F9341E02FD142D14F914F9346E02AD1E5
:10061C003DD14F914F934EE025D138D14F914F930F
:10062C0046E429D133D14F914F934CE424D12ED1B0
:10063C004F914F934FE41FD129D14F914F934FE4DA
:10064C001AD124D14F914F9342E515D11FD14F911F
:10065C004F934AE310D11AD14F914F9340E20BD1F3
:10066C0015D14F91209008025F93522D505D4F93FE
:10067C00452F01D10BD14F915F916E7F99246FCF94
:10068C004F9348E3EFD002D14F911AD14F9348E3E7
:10069C00E9D0FCD04F914F9348E3E4D0F7D04F9181
:1006AC004F9348E0DFD0F2D04F914F9341E0DAD036
:1006BC00EDD04F914F9346E0D5D0E8D04F914F936A
:1006CC004EE0D0D0E3D04F914F9340E2D4D0DED067
:1006DC004F914F9340E2CFD0D9D04F914F9340E2FE
:1006EC00CAD0D4D04F914F9345E4C5D0CFD04F91C1
:1006FC004F934DE6C0D0CAD04F914F9345E6BBD037
:10070C00C5D04F914F9342E7B6D0C0D04F914F9385
:10071C0047E6B1D0BBD04F914F9345E6ACD0B6D0A5
:10072C004F914F934EE6A7D0B1D04F914F9343E6E4
:10073C00A2D0ACD04F914F9349E79DD0A7D04F9109
:10074C004F9340EC8FD0A2D04F914F9340E293D077
:10075C009DD04F914F9340E28ED098D04F914F93B4
:10076C0040E289D093D04F914F9343E484D08ED004
:10077C004F914F9341E67FD089D04F914F934CE6E8
:10078C007AD084D04F914F934CE675D07FD04F9157
:10079C004F9340E270D07AD04F914F9340E36BD09F
:1007AC0075D04F914F9340E366D070D04F914F93DB
:1007BC0040E361D06BD04F91616080910802803032
:1007CC0009F4CDCE562F5072503209F46061562F79
:1007DC005071503109F46062C2E0D2E04427499371
:1007EC00488381E080930B02882780930C02677FFB
:1007FC00B6CE562F5170513051F0562F5270523098
:10080C0031F06260F0910802F41709F002D00C94F8
:10081C00B5025F934F939F938F938827992781E01D
:10082C004F93413024F04A95880F991FFACF4F917E
:10083C00482F592F5F934F939F938F9380910B0267
:10084C0090910C02842B952B80930B0290930C02AD
:10085C008F919F914F915F918F919F914F915F914C
:10086C000895FFCF4F9341BB22D0169A20D01698F3
:10087C001ED04F9108954F9341BB179A18D0169ADA
:10088C0016D0169814D017984F9108954F9344276B
:10089C0040BB41BB159A0BD0169A09D04FB1169894
:1008AC0047FDF9CF15984FEF40BB4F9108958F93AB
:1008BC009F939FE08CE90197F1F79F918F91089599
:0C08CC00F6DFF5DFF4DFF3DFF2DF089564
:00000001FF
