:020000020000FC
:040000000C94330029
:10005C000C9490000C94320018954FEF4DBF41E278
:10006C004EBF40EF40930A014FEF47B948B94FEFED
:10007C0040BB41B9442741BB42B945E548B9C0E052
:10008C00D2E0442749934883C2E0D2E04427499305
:10009C004883C8E0D2E0442749934883C4E0D2E0C7
:1000AC0044274993488340E044BD42E045BD41E0CC
:1000BC0040936E0048E372D181D19AD148E36ED15E
:1000CC007DD148E36BD17AD148E068D177D141E05A
:1000DC0065D174D146E062D171D14EE05FD16ED161
:1000EC0046E463D16BD14CE460D168D14FE45DD16F
:1000FC0065D14FE45AD162D142E557D15FD14AE381
:10010C0054D15CD140E251D159D140E34ED156D1BA
:10011C0078943BC04FB74F93DF93CF93BF93AF937C
:10012C009F938F93562F5270523009F011C0A091AB
:10013C000402B0910502119646E0A831B407B9F457
:10014C006D7FC4E0D2E0442749934883AA27BB279C
:10015C00809100029091010201964EE1843894073F
:10016C0009F40AC0809300029093010205C0A09389
:10017C000402B093050200C08F919F91AF91BF9183
:10018C00CF91DF914F914FBF18953FEE112714304F
:10019C00E1F330930B014FEF4A95F1F740910901D0
:1001AC004F704F3059F021E00027043039F0542FB4
:1001BC00522341F00395220F0C94DB00330F13955F
:1001CC000C94CD00133009F3033039F0402F440F59
:1001DC00400F410F4F5F0C949501103021F01130FE
:1001EC0009F0D3CF40E0562F5270523031F062609C
:1001FC00562F5170513019F032C00C94CB0048E39B
:10020C00CDD0DCD0F5D048E3C9D0D8D048E3C6D0A7
:10021C00D5D048E0C3D0D2D041E0C0D0CFD046E05A
:10022C00BDD0CCD04EE0BAD0C9D046E4BED0C6D0FA
:10023C004CE4BBD0C3D04FE4B8D0C0D04FE4B5D061
:10024C00BDD042E5B2D0BAD04AE3AFD0B7D040E28D
:10025C00ACD0B4D040E3A9D0B1D06E7F96CF48E3F8
:10026C009DD0ACD0C5D048E399D0A8D048E396D067
:10027C00A5D048E093D0A2D041E090D09FD046E0EA
:10028C008DD09CD04EE08AD099D040E28ED096D0C2
:10029C0040E28BD093D040E288D090D045E485D01A
:1002AC008DD04DE682D08AD045E67FD087D042E70C
:1002BC007CD084D047E679D081D045E676D07ED00C
:1002CC004EE673D07BD043E670D078D049E76DD042
:1002DC0075D040EC63D072D040E267D06FD040E272
:1002EC0064D06CD040E261D069D043E45ED066D07B
:1002FC0041E65BD063D04CE658D060D04CE655D08C
:10030C005DD040E252D05AD040E34FD057D040E3BA
:10031C004CD054D040E349D051D0616036CF562FE9
:10032C0051705130C1F1562F52705230A1F16260B0
:10033C004F9348E333D042D05BD048E32FD03ED02C
:10034C0048E32CD03BD048E029D038D041E026D02F
:10035C0035D046E023D032D04EE020D02FD046E42A
:10036C0024D02CD04CE421D029D04FE41ED026D060
:10037C004FE41BD023D042E518D020D04AE315D04F
:10038C001DD040E212D01AD04F91542F505D452F02
:10039C000CD014D0FACE0C94CB00FFCF41BB1FD0A5
:1003AC00169A1DD016981BD0089541BB179A17D0DA
:1003BC00169A15D0169813D0179808954F93442772
:1003CC0040BB41BB159A0BD0169A09D04FB1169869
:1003DC0047FDF9CF15984FEF40BB4F9108958F9380
:1003EC009F939FE08CE90197F1F79F918F9108956E
:0C03FC00F6DFF5DFF4DFF3DFF2DF089539
:00000001FF
