:020000020000FC
:100000000C9433000C9481020C9432000C94320056
:10005C000C94E0000C94320018954FEF4DBF41E228
:10006C004EBF40EF40930A014FEF47B948B943BB2D
:10007C0044BB4FEF40BB41B9442741BB42B94FEFA2
:10008C0048B944BBC0E0D2E0442749934883C2E05E
:10009C00D2E0442749934883C6E0D2E044274993F1
:1000AC004883C9E0D2E0442749934883C4E0D2E0B6
:1000BC00442749934883C7E0D2E0442749934883B7
:1000CC0081E08093070280930B0280910B02909148
:1000DC000C028CE180930B028CE180930C0288273C
:1000EC00607040E044BD42E045BD41E040936E008D
:1000FC004FEF4DB940E040939A00442740939B004A
:10010C0041E04093910041E24093900042E04093E3
:10011C0069004DB341604DBB4F9348E385D398D3F1
:10012C004F91B0D34F9348E37FD392D34F914F93DA
:10013C0048E37AD38DD34F914F9348E075D388D34E
:10014C004F914F9341E070D383D34F914F9346E03F
:10015C006BD37ED34F914F934EE066D379D34F91AF
:10016C004F9346E46AD374D34F914F934CE465D3C9
:10017C006FD34F914F934FE460D36AD34F914F930A
:10018C004FE45BD365D34F914F9342E556D360D385
:10019C004F914F934AE351D35BD34F914F9340E22E
:1001AC004CD356D34F914F9340E347D351D34F91F8
:1001BC007894B8C14FB74F935F937F93DF93CF93EE
:1001CC00BF93AF939F938F93562F5270523009F079
:1001DC0013C0A0910402B091050211964CE0A0331B
:1001EC00B40711F00C9476016D7FC4E0D2E0442783
:1001FC0049934883AA27BB27809100029091010262
:10020C0001964EE18438940709F065C0C0E0D2E055
:10021C00442749934883C0910202D091030221964E
:10022C00562F5071503111F5562F5072503291F0AB
:10023C006F7E606245EB48B942E044BBC130C0936D
:10024C000202D093030229F4C2E0D2E0442749937E
:10025C0048833EC06F7E6F7D45EB48B942E044BB9E
:10026C00C2E0D2E044274993488332C0562F5072E3
:10027C00503281F443E048B944BBC0930202D0939E
:10028C000302C33029F56061C2E0D2E044274993F0
:10029C0048831EC04FEF48B943E044BB88279927D9
:1002AC008091090290910A02803040E0940781F01D
:1002BC00562F5470543069F4C230C0930202D0935C
:1002CC0003029CF4A0910B02B0910C02A8B9B4BB30
:1002DC00BFC00C9439028093000290930102B8C005
:1002EC00A0930402B0930502B3C05F934F93BF93E6
:1002FC00AF939F938F93562F5870583039F42090AA
:10030C000602E1E02E0E2092060206C020900602A4
:10031C00EFEF2E0E209206028827992781E040915C
:10032C0006024F93413024F04A95880F991FFACF5B
:10033C004F918093070290930802562F51705130C1
:10034C0009F452C04F9348E36FD282D24F919AD2A4
:10035C004F9348E369D27CD24F914F9348E364D2D8
:10036C0077D24F914F9348E05FD272D24F914F9317
:10037C0041E05AD26DD24F914F9346E055D268D29C
:10038C004F914F934EE050D263D24F914F9346E42E
:10039C0054D25ED24F914F934CE44FD259D24F91DD
:1003AC004F934FE44AD254D24F914F934FE445D2DE
:1003BC004FD24F914F9342E540D24AD24F914F9337
:1003CC004AE33BD245D24F914F9340E236D240D2D2
:1003DC004F91209006025F93522D505D4F93452F05
:1003EC002CD236D24F915F91C2E0D2E04427499390
:1003FC0048836B7F40E040939A00442740939B00D6
:10040C004090090250900A028421803021F49521F9
:10041C00903009F40AC0606145EB48B942E044BB36
:10042C00C2E0D2E044274993488380959095A091EF
:10043C000902B0910A02A823B923A0930902B09330
:10044C000A028F919F91AF91BF914F915F9100C024
:10045C008F919F91AF91BF91CF91DF917F915F91E0
:10046C004F914FBF18957F935F93BF93AF939F931B
:10047C008F93FF93EF93EE27FF27C2E0D2E0442740
:10048C0049934883C0E0D2E0442749934883646091
:10049C00A0910702B09108026A2E7B2EA8B9B4BBBA
:1004AC008091090290910A02482E592EA817B9077B
:1004BC002CF41197A421A03029F008C0677F669412
:1004CC00779409C06860660C771C05C0562F58706D
:1004DC005830C1F3F3CF5FEF50939A0060920B0248
:1004EC0070920C02EF91FF918F919F91AF91BF9100
:1004FC005F917F91ADCF4F934FB74F93562F507263
:10050C00503261F4562F5270523041F0626060618B
:10051C006062C2E0D2E04427499348834F914FBFB9
:10052C004F9118953FEE11271430E1F330930B01E6
:10053C004FEF4A95F1F7409109014F704F3059F048
:10054C0021E00027043039F0542F522341F0039559
:10055C00220F0C94A802330F13950C949A021330AB
:10056C0009F3033039F0402F440F400F410F4F5F18
:10057C000C94E103103031F0113009F0D3CF40E08E
:10058C000C94E103562F5270523031F06260562FAA
:10059C005170513019F056C00C9498024F9348E3A7
:1005AC0043D156D14F916ED14F9348E33DD150D1A9
:1005BC004F914F9348E338D14BD14F914F9348E033
:1005CC0033D146D14F914F9341E02ED141D14F9130
:1005DC004F9346E029D13CD14F914F934EE024D11B
:1005EC0037D14F914F9346E428D132D14F914F934D
:1005FC004CE423D12DD14F914F934FE41ED128D1F0
:10060C004F914F934FE419D123D14F914F9342E522
:10061C0014D11ED14F914F934AE30FD119D14F9161
:10062C004F9340E20AD114D14F91209006025F9370
:10063C00522D505D4F93452F00D10AD14F915F91B0
:10064C006E7F70CF4F9348E3EFD002D14F911AD108
:10065C004F9348E3E9D0FCD04F914F9348E3E4D05B
:10066C00F7D04F914F9348E0DFD0F2D04F914F939A
:10067C0041E0DAD0EDD04F914F9346E0D5D0E8D0A1
:10068C004F914F934EE0D0D0E3D04F914F9340E237
:10069C00D4D0DED04F914F9340E2CFD0D9D04F91F0
:1006AC004F9340E2CAD0D4D04F914F9345E4C5D07C
:1006BC00CFD04F914F934DE6C0D0CAD04F914F93AE
:1006CC0045E6BBD0C5D04F914F9342E7B6D0C0D0D2
:1006DC004F914F9347E6B1D0BBD04F914F9345E626
:1006EC00ACD0B6D04F914F934EE6A7D0B1D04F912E
:1006FC004F9343E6A2D0ACD04F914F9349E79DD096
:10070C00A7D04F914F9340EC8FD0A2D04F914F93E5
:10071C0040E293D09DD04F914F9340E28ED098D031
:10072C004F914F9340E289D093D04F914F9343E434
:10073C0084D08ED04F914F9341E67FD089D04F918A
:10074C004F934CE67AD084D04F914F934CE675D0B2
:10075C007FD04F914F9340E270D07AD04F914F930E
:10076C0040E36BD075D04F914F9340E366D070D07F
:10077C004F914F9340E361D06BD04F91616080916A
:10078C000602803009F4CECE562F5072503209F446
:10079C006061562F5071503109F46062C2E0D2E0B2
:1007AC0044274993488381E08093090288278093EA
:1007BC000A02677FB7CE562F5170513051F0562F29
:1007CC005270523031F06260F0910602F41709F069
:1007DC0002D00C9498025F934F939F938F9388272A
:1007EC00992781E04F93413024F04A95880F991F47
:1007FC00FACF4F91482F592F5F934F939F938F931D
:10080C008091090290910A02842B952B8093090206
:10081C0090930A028F919F914F915F918F919F912D
:10082C004F915F910895FFCF4F9341BB22D0169A01
:10083C0020D016981ED04F9108954F9341BB179A14
:10084C0018D0169A16D0169814D017984F91089560
:10085C004F93442740BB41BB159A0BD0169A09D035
:10086C004FB1169847FDF9CF15984FEF40BB4F91FC
:10087C0008958F939F939FE08CE90197F1F79F91D7
:10088C008F910895F6DFF5DFF4DFF3DFF2DF0895E3
:00000001FF
