:020000020000FC
:100000000C9433000C947C020C9432000C9432005B
:10005C000C94E0000C94320018954FEF4DBF41E228
:10006C004EBF40EF40930A014FEF47B948B943BB2D
:10007C0044BB4FEF40BB41B9442741BB42B94FEFA2
:10008C0048B944BBC0E0D2E0442749934883C2E05E
:10009C00D2E0442749934883C6E0D2E044274993F1
:1000AC004883C9E0D2E0442749934883C4E0D2E0B6
:1000BC00442749934883C7E0D2E0442749934883B7
:1000CC0081E08093070280930B0280910B02909148
:1000DC000C028CE180930B028CE180930C0288273C
:1000EC00607040E044BD42E045BD41E040936E008D
:1000FC004FEF4DB940E040939A00442740939B004A
:10010C0041E04093910041E24093900042E04093E3
:10011C0069004DB341604DBB4F9348E365D378D331
:10012C004F9190D34F9348E35FD372D34F914F933A
:10013C0048E35AD36DD34F914F9348E055D368D3CE
:10014C004F914F9341E050D363D34F914F9346E07F
:10015C004BD35ED34F914F934EE046D359D34F912F
:10016C004F9346E44AD354D34F914F934CE445D329
:10017C004FD34F914F934FE440D34AD34F914F936A
:10018C004FE43BD345D34F914F9342E536D340D305
:10019C004F914F934AE331D33BD34F914F9340E26E
:1001AC002CD336D34F914F9340E327D331D34F9178
:1001BC007894B3C14FB74F935F937F93DF93CF93F3
:1001CC00BF93AF939F938F93562F5270523009F079
:1001DC0013C0A0910402B091050211964CE0A0331B
:1001EC00B40711F00C9476016D7FC4E0D2E0442783
:1001FC0049934883AA27BB27809100029091010262
:10020C0001964EE18438940709F065C0C0E0D2E055
:10021C00442749934883C0910202D091030221964E
:10022C00562F5071503111F5562F5072503291F0AB
:10023C006F7E606245EB48B942E044BBC130C0936D
:10024C000202D093030229F4C2E0D2E0442749937E
:10025C0048833EC06F7E6F7D45EB48B942E044BB9E
:10026C00C2E0D2E044274993488332C0562F5072E3
:10027C00503281F443E048B944BBC0930202D0939E
:10028C000302C33029F56061C2E0D2E044274993F0
:10029C0048831EC04FEF48B943E044BB88279927D9
:1002AC008091090290910A02803040E0940781F01D
:1002BC00562F5470543069F4C230C0930202D0935C
:1002CC0003029CF4A0910B02B0910C02A8B9B4BB30
:1002DC00BAC00C9434028093000290930102B3C014
:1002EC00A0930402B0930502AEC05F934F93BF93EB
:1002FC00AF939F938F93562F5870583039F42090AA
:10030C000602E1E02E0E2092060206C020900602A4
:10031C00EFEF2E0E209206028827992781E040915C
:10032C0006024F93413024F04A95880F991FFACF5B
:10033C004F9180930702909308024F9348E354D255
:10034C0067D24F917FD24F9348E34ED261D24F91F7
:10035C004F9348E349D25CD24F914F9348E044D23B
:10036C0057D24F914F9341E03FD252D24F914F937E
:10037C0046E03AD24DD24F914F934EE035D248D20F
:10038C004F914F9346E439D243D24F914F934CE463
:10039C0034D23ED24F914F934FE42FD239D24F915A
:1003AC004F934FE42AD234D24F914F9342E525D24A
:1003BC002FD24F914F934AE320D22AD24F914F9391
:1003CC0040E21BD225D24F91209006025F93522D12
:1003DC00505D4F93452F11D21BD24F915F91C2E0CC
:1003EC00D2E04427499348836B7F40E040939A00C6
:1003FC00442740939B004090090250900A028421AC
:10040C00803021F49521903009F40AC0606145EBED
:10041C0048B942E044BBC2E0D2E044274993488348
:10042C0080959095A0910902B0910A02A823B92356
:10043C00A0930902B0930A028F919F91AF91BF9143
:10044C004F915F9100C08F919F91AF91BF91CF91D0
:10045C00DF917F915F914F914FBF18957F935F9381
:10046C00BF93AF939F938F93FF93EF93EE27FF2749
:10047C00C2E0D2E0442749934883C0E0D2E044274D
:10048C00499348836460A0910702B09108026A2ED8
:10049C007B2EA8B9B4BB8091090290910A02482E18
:1004AC00592EA817B9072CF41197A421A03029F0C4
:1004BC0008C0677F6694779409C06860660C771CE7
:1004CC0005C0562F58705830C1F3F3CF5FEF5093DF
:1004DC009A0060920B0270920C02EF91FF918F9137
:1004EC009F91AF91BF915F917F91ADCF4F934FB7DC
:1004FC004F93562F5072503261F4562F5270523027
:10050C0041F0626060616062C2E0D2E044274993CE
:10051C0048834F914FBF4F9118953FEE11271430E0
:10052C00E1F330930B014FEF4A95F1F7409109013C
:10053C004F704F3059F021E00027043039F0542F20
:10054C00522341F00395220F0C94A302330F139501
:10055C000C949502133009F3033039F0402F440FFB
:10056C00400F410F4F5F0C94C103103031F011302C
:10057C0009F0D3CF40E00C94C103562F5270523087
:10058C0031F06260562F5170513019F056C00C94F6
:10059C0093024F9348E328D13BD14F9153D14F93C2
:1005AC0048E322D135D14F914F9348E31DD130D13F
:1005BC004F914F9348E018D12BD14F914F9341E07D
:1005CC0013D126D14F914F9346E00ED121D14F91AB
:1005DC004F934EE009D11CD14F914F9346E40DD16E
:1005EC0017D14F914F934CE408D112D14F914F93A7
:1005FC004FE403D10DD14F914F934FE4FED008D16E
:10060C004F914F9342E5F9D003D14F914F934AE369
:10061C00F4D0FED04F914F9340E2EFD0F9D04F91F0
:10062C00209006025F93522D505D4F93452FE5D0DD
:10063C00EFD04F915F916E7F70CF4F9348E3D4D042
:10064C00E7D04F91FFD04F9348E3CED0E1D04F91FC
:10065C004F9348E3C9D0DCD04F914F9348E0C4D0BE
:10066C00D7D04F914F9341E0BFD0D2D04F914F9301
:10067C0046E0BAD0CDD04F914F934EE0B5D0C8D014
:10068C004F914F9340E2B9D0C3D04F914F9340E27A
:10069C00B4D0BED04F914F9340E2AFD0B9D04F9170
:1006AC004F9345E4AAD0B4D04F914F934DE6A5D0CB
:1006BC00AFD04F914F9345E6A0D0AAD04F914F9316
:1006CC0042E79BD0A5D04F914F9347E696D0A0D050
:1006DC004F914F9345E691D09BD04F914F934EE65F
:1006EC008CD096D04F914F9343E687D091D04F91B9
:1006FC004F9349E782D08CD04F914F9340EC74D0FC
:10070C0087D04F914F9340E278D082D04F914F9346
:10071C0040E273D07DD04F914F9340E26ED078D0B1
:10072C004F914F9343E469D073D04F914F9341E66F
:10073C0064D06ED04F914F934CE65FD069D04F91FF
:10074C004F934CE65AD064D04F914F9340E255D022
:10075C005FD04F914F9340E350D05AD04F914F936D
:10076C0040E34BD055D04F914F9340E346D050D0FF
:10077C004F916160D2CE562F5170513051F0562F9F
:10078C005270523031F06260F0910602F41709F0A9
:10079C0002D00C9493025F934F939F938F9388276F
:1007AC00992781E04F93413024F04A95880F991F87
:1007BC00FACF4F91482F592F5F934F939F938F935D
:1007CC008091090290910A02842B952B8093090247
:1007DC0090930A028F919F914F915F918F919F916E
:1007EC004F915F910895FFCF4F9341BB22D0169A42
:1007FC0020D016981ED04F9108954F9341BB179A55
:10080C0018D0169A16D0169814D017984F910895A0
:10081C004F93442740BB41BB159A0BD0169A09D075
:10082C004FB1169847FDF9CF15984FEF40BB4F913C
:10083C0008958F939F939FE08CE90197F1F79F9117
:10084C008F910895F6DFF5DFF4DFF3DFF2DF089523
:00000001FF
