:020000020000FC
:040000000C94330029
:10005C000C949E000C94320018954FEF4DBF41E26A
:10006C004EBF40EF40930A014FEF47B948B94FEFED
:10007C0040BB41B9442741BB42B94FEF48B9C0E03E
:10008C00D2E0442749934883C2E0D2E04427499305
:10009C004883C8E0D2E0442749934883CBE0D2E0C0
:1000AC00442749934883C4E0D2E0442749934883CA
:1000BC00C9E0D2E044274993488381E08093090248
:1000CC00607040E044BD42E045BD41E040936E00AD
:1000DC0048E378D187D1A0D148E374D183D148E3E8
:1000EC0071D180D148E06ED17DD141E06BD17AD114
:1000FC0046E068D177D14EE065D174D146E469D140
:10010C0071D14CE466D16ED14FE463D16BD14FE425
:10011C0060D168D142E55DD165D14AE35AD162D153
:10012C0040E257D15FD140E354D15CD178943BC0CD
:10013C004FB74F93DF93CF93BF93AF939F938F930F
:10014C00562F5270523009F011C0A0910402B09198
:10015C000502119646E0A831B407B9F46D7FC4E0EE
:10016C00D2E0442749934883AA27BB2780910002F9
:10017C009091010201964EE18438940709F40AC06B
:10018C00809300029093010205C0A0930402B093E7
:10019C00050200C08F919F91AF91BF91CF91DF91DC
:1001AC004F914FBF18953FEE11271430E1F3309368
:1001BC000B014FEF4A95F1F7409109014F704F3009
:1001CC0059F021E00027043039F0542F522341F02C
:1001DC000395220F0C94E900330F13950C94DB005C
:1001EC00133009F3033039F0402F440F400F410F07
:1001FC004F5F0C94A301103021F0113009F0D3CFD4
:10020C0040E0562F5270523031F06260562F5170D0
:10021C00513019F032C00C94D90048E3D3D0E2D05D
:10022C00FBD048E3CFD0DED048E3CCD0DBD048E0E5
:10023C00C9D0D8D041E0C6D0D5D046E0C3D0D2D0BA
:10024C004EE0C0D0CFD046E4C4D0CCD04CE4C1D02A
:10025C00C9D04FE4BED0C6D04FE4BBD0C3D042E52A
:10026C00B8D0C0D04AE3B5D0BDD040E2B2D0BAD0FD
:10027C0040E3AFD0B7D06E7F96CF48E3A3D0B2D0D7
:10028C00CBD048E39FD0AED048E39CD0ABD048E075
:10029C0099D0A8D041E096D0A5D046E093D0A2D07A
:1002AC004EE090D09FD040E294D09CD040E291D0D0
:1002BC0099D040E28ED096D045E48BD093D04DE6C9
:1002CC0088D090D045E685D08DD042E782D08AD0B8
:1002DC0047E67FD087D045E67CD084D04EE679D0F7
:1002EC0081D043E676D07ED049E773D07BD040EC0A
:1002FC0069D078D040E26DD075D040E26AD072D02F
:10030C0040E267D06FD043E464D06CD041E661D05A
:10031C0069D04CE65ED066D04CE65BD063D040E250
:10032C0058D060D040E355D05DD040E352D05AD085
:10033C0040E34FD057D0616036CF562F51705130BB
:10034C00C1F1562F52705230A1F162604F9348E3C5
:10035C0039D048D061D048E335D044D048E332D0CE
:10036C0041D048E02FD03ED041E02CD03BD046E0ED
:10037C0029D038D04EE026D035D046E42AD032D021
:10038C004CE427D02FD04FE424D02CD04FE421D0F4
:10039C0029D042E51ED026D04AE31BD023D040E220
:1003AC0018D020D04F91542F505D452F12D01AD019
:1003BC00FACE0C94D900FFCF4F938F939F939F91BC
:1003CC008F914F9141BB1FD0169A1DD016981BD000
:1003DC00089541BB179A17D0169A15D0169813D0BA
:1003EC00179808954F93442740BB41BB159A0BD0E7
:1003FC00169A09D04FB1169847FDF9CF15984FEFC3
:10040C0040BB4F9108958F939F939FE08CE9019788
:10041C00F1F79F918F910895F6DFF5DFF4DFF3DFAD
:04042C00F2DF08955E
:00000001FF
