:020000020000FC
:0C0000000C9433000C9432000C9432007D
:10005C000C94B7000C94320018954FEF4DBF41E251
:10006C004EBF40EF40930A014FEF47B948B94FEFED
:10007C0040BB41B9442741BB42B94FEF48B9C0E03E
:10008C00D2E0442749934883C2E0D2E04427499305
:10009C004883C8E0D2E0442749934883CBE0D2E0C0
:1000AC00442749934883C4E0D2E0442749934883CA
:1000BC00C9E0D2E044274993488381E08093090248
:1000CC0080910E0290910F0281E080930E0281E0EC
:1000DC0080930F028827607040E044BD42E045BD2C
:1000EC0041E040936E004FEF4DB940E040939A00D1
:1000FC00442740939B0041E04093910041E24093A0
:10010C00900048E36FD280D299D248E36BD27CD274
:10011C0048E368D279D248E065D276D241E062D227
:10012C0073D246E05FD270D24EE05CD26DD246E420
:10013C0060D26AD24CE45DD267D24FE45AD264D218
:10014C004FE457D261D242E554D25ED24AE351D247
:10015C005BD240E24ED258D240E34BD255D2789487
:10016C0036C14FB74F935F937F93DF93CF93DF935A
:10017C00CF93BF93AF939F938F93562F5270523060
:10018C0009F013C0A0910402B0910502119646E04B
:10019C00A831B40711F00C9419016D7FC4E0D2E0C2
:1001AC00442749934883AA27BB278091000290914A
:1001BC00010201964EE18438940781F5C091020248
:1001CC00D09103022196C0930202D0930302C0E0A7
:1001DC00D2E04427499348834F939F938F93809108
:1001EC000B0290910C0240E0803094078F919F910C
:1001FC004F9189F0562F5470543071F4C930C1F0BE
:10020C0050910E0270910F02550F771F78B95093D1
:10021C000E0270930F026AC00C9489018093000245
:10022C009093010263C0A0930402B09305025EC0D8
:10023C005F934F939F938F9320900802E1E02E0ED3
:10024C00209208028827992781E0409108024F9359
:10025C00413024F04A95880F991FFACF4F9148E30B
:10026C00C1D1D2D1EBD148E3BDD1CED148E3BAD183
:10027C00CBD148E0B7D1C8D141E0B4D1C5D146E02B
:10028C00B1D1C2D14EE0AED1BFD146E4B2D1BCD1D6
:10029C004CE4AFD1B9D14FE4ACD1B6D14FE4A9D134
:1002AC00B3D142E5A6D1B0D14AE3A3D1ADD140E25E
:1002BC00A0D1AAD1209008025F93522D505D4F938C
:1002CC00452F97D1A1D14F915F91C2E0D2E0442745
:1002DC00499348836B7F40E040939A0044274093B6
:1002EC009B008F919F914F915F9100C08F919F9137
:1002FC00AF91BF91CF91DF91CF91DF917F915F91C2
:10030C004F914FBF18957F935F93BF93AF939F937C
:10031C008F93FF93EF93EE27FF27C2E0D2E04427A1
:10032C00499348836460A0910902B0910A028091BC
:10033C000B0290910C0259E070910802571B51303E
:10034C007CF05A95AA0FBB1FAF93BF93A823B92378
:10035C00A03029F4B03019F4BF91AF91F0CFFFEF7A
:10036C00A0910902B0910A025091080270E0571B4B
:10037C005030B1F05A95A695BB1FAF93BF93A823ED
:10038C00B923A03029F4B03019F4BF91AF91F0CF5C
:10039C00EFEFFF3F19F4EF3F19F403C0677F01C083
:1003AC0068605FEF50939A00552750939B0071E063
:1003BC0078B970930E0271E070930F02EF91FF9178
:1003CC008F919F91AF91BF915F917F918FCF3FEEB6
:1003DC0011271430E1F330930B014FEF4A95F1F7ED
:1003EC00409109014F704F3059F021E00027043043
:1003FC0039F0542F522341F00395220F0C94FD0138
:10040C00330F13950C94EF01133009F3033039F0CB
:10041C00402F440F400F410F4F5F0C94B902103026
:10042C0031F0113009F0D3CF40E00C94B902562FC3
:10043C005270523031F06260562F5170513019F0B9
:10044C0032C00C94ED0148E3CDD0DED0F7D048E3B8
:10045C00C9D0DAD048E3C6D0D7D048E0C3D0D4D086
:10046C0041E0C0D0D1D046E0BDD0CED04EE0BAD025
:10047C00CBD046E4BED0C8D04CE4BBD0C5D04FE402
:10048C00B8D0C2D04FE4B5D0BFD042E5B2D0BCD0CA
:10049C004AE3AFD0B9D040E2ACD0B6D040E3A9D05B
:1004AC00B3D06E7F94CF48E39DD0AED0C7D048E395
:1004BC0099D0AAD048E396D0A7D048E093D0A4D046
:1004CC0041E090D0A1D046E08DD09ED04EE08AD0B5
:1004DC009BD040E28ED098D040E28BD095D040E2B9
:1004EC0088D092D045E485D08FD04DE682D08CD088
:1004FC0045E67FD089D042E77CD086D047E679D0DC
:10050C0083D045E676D080D04EE673D07DD043E6DE
:10051C0070D07AD049E76DD077D040EC63D074D0EE
:10052C0040E267D071D040E264D06ED040E261D03E
:10053C006BD043E45ED068D041E65BD065D04CE62E
:10054C0058D062D04CE655D05FD040E252D05CD04F
:10055C0040E34FD059D040E34CD056D040E349D083
:10056C0053D0616034CF562F5170513051F0562F0B
:10057C005270523031F06260F0910802F41709F0B9
:10058C0002D00C94ED015F934F939F938F93882728
:10059C00992781E04F93413024F04A95880F991F99
:1005AC00FACF4F91482F592F5F934F939F938F936F
:1005BC0080910B0290910C02842B952B80930B0253
:1005CC0090930C028F919F914F915F918F919F917E
:1005DC004F915F910895FFCF4F938F939F939F916E
:1005EC008F914F9141BB21D0169A1FD016981DD0D8
:1005FC0008954F9341BB179A18D0169A16D0169897
:10060C0014D017984F9108954F93442740BB41BB8A
:10061C00159A0BD0169A09D04FB1169847FDF9CF01
:10062C0015984FEF40BB4F9108958F939F939FE088
:10063C008CE90197F1F79F918F910895F6DFF5DF23
:08064C00F4DFF3DFF2DF089593
:00000001FF
