:020000020000FC
:100000000C9433000C94A4020C94BB020C943200A8
:040010000C9432001A
:10005C000C94EA000C94320018954FEF4DBF41E21E
:10006C004EBF40EF40930A014FEF47B948B943BB2D
:10007C0044BB4FEF40BB41B9442741BB42B94FEFA2
:10008C0048B944BBC0E0D2E0442749934883C2E05E
:10009C00D2E0442749934883C8E0D2E044274993EF
:1000AC004883CBE0D2E0442749934883C4E0D2E0B4
:1000BC00442749934883C9E0D2E0442749934883B5
:1000CC0081E08093090280930D0280910D02909142
:1000DC000E028CE180930D028CE180930E02882736
:1000EC00607040E044BD42E045BD41E040936E008D
:1000FC004FEF4DB940E040939A00442740939B004A
:10010C0041E04093910041E24093900042E04093E3
:10011C0069004DB341604DBB42E0409369004DB363
:10012C0042604DBB4FEF44B9442745B94F9348E368
:10013C00B7D3CAD34F91E2D34F9348E3B1D3C4D3CF
:10014C004F914F9348E3ACD3BFD34F914F9348E0BB
:10015C00A7D3BAD34F914F9341E0A2D3B5D34F91CC
:10016C004F9346E09DD3B0D34F914F934EE098D32D
:10017C00ABD34F914F9346E49CD3A6D34F914F935F
:10018C004CE497D3A1D34F914F934FE492D39CD38C
:10019C004F914F934FE48DD397D34F914F9342E5AB
:1001AC0088D392D34F914F934AE383D38DD34F91FE
:1001BC004F9340E27ED388D34F914F9340E379D352
:1001CC0083D34F917894E7C14FB74F935F937F934D
:1001DC00DF93CF93BF93AF939F938F93562F527010
:1001EC00523009F013C0A0910402B091050211968F
:1001FC004CE0A033B40711F00C9499016D7FC4E06E
:10020C00D2E0442749934883AA27BB278091000258
:10021C00909101020196562F51705130A9F4A09182
:10022C000602B0910702119643E0A03DB40741F4D9
:10023C00C6E0D2E0442749934883909495B804C013
:10024C00A0930602B09307024EE18438940709F09C
:10025C0065C0C0E0D2E0442749934883C0910202B4
:10026C00D09103022196562F5071503111F5562F13
:10027C005072503291F06F7E606245EB48B942E0AB
:10028C0044BBC130C0930202D093030229F4C2E0F4
:10029C00D2E04427499348833EC06F7E6F7D45EB87
:1002AC0048B942E044BBC2E0D2E0442749934883BA
:1002BC0032C0562F5072503281F443E048B944BBDF
:1002CC00C0930202D0930302C33029F56061C2E0EF
:1002DC00D2E04427499348831EC04FEF48B943E00E
:1002EC0044BB8827992780910B0290910C02803097
:1002FC0040E0940781F0562F5470543069F4C230AA
:10030C00C0930202D09303029CF4A0910D02B09111
:10031C000E02A8B9B4BBBFC00C945C02809300025F
:10032C0090930102B8C0A0930402B0930502B3C02D
:10033C005F934F93BF93AF939F938F93562F5870A8
:10034C00583039F420900802E1E02E0E2092080279
:10035C0006C020900802EFEF2E0E2092080288278C
:10036C00992781E0409108024F93413024F04A953F
:10037C00880F991FFACF4F918093090290930A022C
:10038C00562F5170513009F452C04F9348E388D224
:10039C009BD24F91B3D24F9348E382D295D24F91D7
:1003AC004F9348E37DD290D24F914F9348E078D24F
:1003BC008BD24F914F9341E073D286D24F914F9392
:1003CC0046E06ED281D24F914F934EE069D27CD2EF
:1003DC004F914F9346E46DD277D24F914F934CE4AB
:1003EC0068D272D24F914F934FE463D26DD24F913A
:1003FC004F934FE45ED268D24F914F9342E559D25E
:10040C0063D24F914F934AE354D25ED24F914F93A4
:10041C0040E24FD259D24F91209008025F93522D57
:10042C00505D4F93452F45D24FD24F915F91C2E013
:10043C00D2E04427499348836B7F40E040939A0075
:10044C00442740939B0040900B0250900C02842157
:10045C00803021F49521903009F40AC0606145EB9D
:10046C0048B942E044BBC2E0D2E0442749934883F8
:10047C0080959095A0910B02B0910C02A823B92302
:10048C00A0930B02B0930C028F919F91AF91BF91EF
:10049C004F915F9100C08F919F91AF91BF91CF9180
:1004AC00DF917F915F914F914FBF18957F935F9331
:1004BC00BF93AF939F938F93FF93EF93EE27FF27F9
:1004CC00C2E0D2E0442749934883C0E0D2E04427FD
:1004DC00499348836460A0910902B0910A026A2E84
:1004EC007B2EA8B9B4BB80910B0290910C02482EC4
:1004FC00592EA817B9072CF41197A421A03029F074
:10050C0008C0677F6694779409C06860660C771C96
:10051C0005C0562F58705830C1F3F3CF5FEF50938E
:10052C009A0060920D0270920E02EF91FF918F91E2
:10053C009F91AF91BF915F917F91ADCF4F934FB78B
:10054C004F93562F5072503261F4562F52705230D6
:10055C0041F0626060616062C2E0D2E0442749937E
:10056C0048834F914FBF4F9118954F934FB74F936F
:10057C00562F5470543059F0562F5072503239F067
:10058C00562F5270523069F3626060616F7D4F91EB
:10059C004FBF4F9118953FEE11271430E1F3309374
:1005AC000B014FEF4A95F1F7409109014F704F3015
:1005BC0059F021E00027043039F0542F522341F038
:1005CC000395220F0C94E102330F13950C94D30274
:1005DC00133009F3033039F0402F440F400F410F13
:1005EC004F5F0C941D04103031F0113009F0D3CF53
:1005FC0040E00C941D04562F5270523031F0626062
:10060C00562F5170513019F058C00C94D1024F93A1
:10061C0048E346D159D14F9171D14F9348E340D122
:10062C0053D14F914F9348E33BD14ED14F914F93C0
:10063C0048E036D149D14F914F9341E031D144D16B
:10064C004F914F9346E02CD13FD14F914F934EE0B9
:10065C0027D13AD14F914F9346E42BD135D14F91BD
:10066C004F934CE426D130D14F914F934FE421D18D
:10067C002BD14F914F934FE41CD126D14F914F93D7
:10068C0042E517D121D14F914F934AE312D11CD19E
:10069C004F914F9340E20DD117D14F91209008020A
:1006AC005F93522D505D4F93452F03D10DD14F9138
:1006BC005F916E7F992495B86ECF4F9348E3F0D03D
:1006CC0003D14F911BD14F9348E3EAD0FDD04F910A
:1006DC004F9348E3E5D0F8D04F914F9348E0E0D0EA
:1006EC00F3D04F914F9341E0DBD0EED04F914F932D
:1006FC0046E0D6D0E9D04F914F934EE0D1D0E4D024
:10070C004F914F9340E2D5D0DFD04F914F9340E2C1
:10071C00D0D0DAD04F914F9340E2CBD0D5D04F917F
:10072C004F9345E4C6D0D0D04F914F934DE6C1D0F6
:10073C00CBD04F914F9345E6BCD0C6D04F914F9341
:10074C0042E7B7D0C1D04F914F9347E6B2D0BCD05F
:10075C004F914F9345E6ADD0B7D04F914F934EE6A6
:10076C00A8D0B2D04F914F9343E6A3D0ADD04F91C8
:10077C004F9349E79ED0A8D04F914F9340EC90D027
:10078C00A3D04F914F9340E294D09ED04F914F9372
:10079C0040E28FD099D04F914F9340E28AD094D0C1
:1007AC004F914F9343E485D08FD04F914F9341E6B7
:1007BC0080D08AD04F914F934CE67BD085D04F910F
:1007CC004F934CE676D080D04F914F9340E271D04E
:1007DC007BD04F914F9340E36CD076D04F914F9399
:1007EC0040E367D071D04F914F9340E362D06CD00F
:1007FC004F91616080910802803011F46062CBCE21
:10080C00562F5072503209F46061562F507150318E
:10081C0009F46062C2E0D2E044274993488381E046
:10082C0080930B02882780930C02677FB4CE562FDF
:10083C005170513051F0562F5270523031F062607D
:10084C00F0910802F41709F002D00C94D1025F93D6
:10085C004F939F938F938827992781E04F93413033
:10086C0024F04A95880F991FFACF4F91482F592F92
:10087C005F934F939F938F9380910B0290910C02F7
:10088C00842B952B80930B0290930C028F919F914C
:10089C004F915F918F919F914F915F910895FFCFF1
:1008AC004F9341BB22D0169A20D016981ED04F9150
:1008BC0008954F9341BB179A18D0169A16D01698D4
:1008CC0014D017984F9108954F93442740BB41BBC8
:1008DC00159A0BD0169A09D04FB1169847FDF9CF3F
:1008EC0015984FEF40BB4F9108958F939F939FE0C6
:1008FC008CE90197F1F79F918F910895F6DFF5DF61
:08090C00F4DFF3DFF2DF0895D0
:00000001FF
