:020000020000FC
:040000000C94330029
:10005C000C9490000C94320018954FEF4DBF41E278
:10006C004EBF40EF40930A014FEF47B948B94FEFED
:10007C0040BB41B9442741BB42B94FEF48B9C0E03E
:10008C00D2E0442749934883C2E0D2E04427499305
:10009C004883C8E0D2E0442749934883C4E0D2E0C7
:1000AC0044274993488340E044BD42E045BD41E0CC
:1000BC0040936E0048E332D141D15AD148E32ED15E
:1000CC003DD148E32BD13AD148E028D137D141E09A
:1000DC0025D134D146E022D131D14EE01FD12ED1E1
:1000EC0046E423D12BD14CE420D128D14FE41DD1AF
:1000FC0025D14FE41AD122D142E517D11FD14AE3C1
:10010C0014D11CD140E211D119D140E30ED116D13A
:10011C0078943BC04FB74F93DF93CF93BF93AF937C
:10012C009F938F93562F5270523009F011C0A091AB
:10013C000402B0910502119646E0A831B407B9F457
:10014C006D7FC4E0D2E0442749934883AA27BB279C
:10015C00809100029091010201964EE1843894073F
:10016C0009F40AC0809300029093010205C0A09389
:10017C000402B093050200C08F919F91AF91BF9183
:10018C00CF91DF914F914FBF18953FEE112714304F
:10019C00E1F330930B014FEF4A95F1F740910901D0
:1001AC004F704F3059F021E00027043039F0542FB4
:1001BC00522341F00395220F0C94DB00330F13955F
:1001CC000C94CD00133009F3033039F0402F440F59
:1001DC00400F410F4F5F0C945901103021F011303A
:1001EC0009F0D3CF40E048E399D0A8D0C1D048E380
:1001FC0095D0A4D048E392D0A1D048E08FD09ED027
:10020C0041E08CD09BD046E089D098D04EE086D08F
:10021C0095D040E28AD092D040E287D08FD040E295
:10022C0084D08CD045E481D089D04DE67ED086D068
:10023C0045E67BD083D042E778D080D047E675D0B6
:10024C007DD045E672D07AD04EE66FD077D043E6BB
:10025C006CD074D049E769D071D040EC5FD06ED0CF
:10026C0040E263D06BD040E260D068D040E25DD019
:10027C0065D043E45AD062D041E657D05FD04CE60B
:10028C0054D05CD04CE651D059D040E24ED056D030
:10029C0040E34BD053D040E348D050D040E345D05E
:1002AC004DD0616072CF562F52705230A1F1626006
:1002BC004F9348E333D042D05BD048E32FD03ED0AD
:1002CC0048E32CD03BD048E029D038D041E026D0B0
:1002DC0035D046E023D032D04EE020D02FD046E4AB
:1002EC0024D02CD04CE421D029D04FE41ED026D0E1
:1002FC004FE41BD023D042E518D020D04AE315D0D0
:10030C001DD040E212D01AD04F91542F505D452F82
:10031C000CD014D03ACF0C94CB00FFCF41BB1FD0E4
:10032C00169A1DD016981BD0089541BB179A17D05A
:10033C00169A15D0169813D0179808954F934427F2
:10034C0040BB41BB159A0BD0169A09D04FB11698E9
:10035C0047FDF9CF15984FEF40BB4F9108958F9300
:10036C009F939FE08CE90197F1F79F918F910895EE
:0C037C00F6DFF5DFF4DFF3DFF2DF0895B9
:00000001FF
